:100000000C942A000C9447000C9447000C94470071
:100010000C9447000C9447000C9447000C94470044
:100020000C9447000C9447000C9447000C94470034
:100030000C9447000C9447000C9447000C94470024
:100040000C9447000C9447000C9447000C94470014
:100050000C94470011241FBECFE5D8E0DEBFCDBF12
:1000600010E0A0E6B0E0E6EAFDE102C005900D92E6
:10007000A239B107D9F710E0A2E9B0E001C01D92A2
:10008000A539B107E1F70E941D0D0C94D10E0C9417
:100090000000EF92FF920F931F937B018C0120E0F1
:1000A00030E040E05FE40E94490388238CF0C801FF
:1000B000B70120E030E040E05FE40E94C1010E940F
:1000C000A9039B01AC01205030404040504806C07D
:1000D000C801B7010E94A9039B01AC01B901CA0183
:1000E0001F910F91FF90EF900895A0E0B0E0EBE733
:1000F000F0E00C949A0EDC012B01FA019C919230F5
:1001000008F439C1EB018881823008F433C194309E
:1001100069F4843009F02FC111969C91119789815F
:10012000981709F428C1A0E6B0E025C1843009F48D
:1001300021C18230A9F4923009F01DC19A01AD01AC
:1001400088E0EA010990AE01E90109929E0181501F
:10015000C1F7E201898111969C918923818308C1AD
:10016000923009F407C112962D903C901397EB0141
:100170008A819B811496AD90BD90CD90DC901797AD
:10018000EC80FD800E811F819101281B390BB90184
:1001900037FF04C066277727621B730B6032710537
:1001A0000CF061C0121613066CF537014801062EDB
:1001B00004C096948794779467940A94D2F721E0C8
:1001C00030E040E050E004C0220F331F441F551FB1
:1001D0006A95D2F721503040404050402E213F21B7
:1001E00040235123211531054105510521F021E01E
:1001F00030E040E050E079018A01E628F72808293C
:1002000019293CC0232BD1F1260E371E350146019A
:10021000062E04C096948794779467940A94D2F734
:1002200021E030E040E050E004C0220F331F441FC3
:10023000551F6A95D2F721503040404050402A2146
:100240003B214C215D21211531054105510521F04E
:1002500021E030E040E050E059016A01A628B728CB
:10026000C828D9280BC0821593052CF01C01AA249C
:10027000BB24650103C0EE24FF24870111969C91E5
:10028000D20111968C91981709F445C0992339F041
:10029000A80197012A193B094C095D0906C0A6016E
:1002A00095012E193F09400B510B57FD08C01182D3
:1002B0003382228224833583468357831DC081E0A5
:1002C00081833382228288279927DC01821B930B4A
:1002D000A40BB50B84839583A683B7830DC0220F2F
:1002E000331F441F551F24833583468357838281E0
:1002F000938101979383828324813581468157813D
:10030000DA01C9010197A109B1098F5F9F4FAF4F72
:10031000BF4328F30BC0918333822282EA0CFB1C7B
:100320000C1D1D1DE482F5820683178383E0808304
:10033000248135814681578157FF1AC0C901AA27F8
:1003400097FDA095BA2F81709070A070B0705695EF
:10035000479537952795822B932BA42BB52B848318
:100360009583A683B7838281938101969383828349
:10037000DF0101C0D201CD01CDB7DEB7E2E10C94BF
:10038000B60EA0E2B0E0E7ECF1E00C94A60E6983B3
:100390007A838B839C832D833E834F835887E9E048
:1003A000EE2EF12CEC0EFD1ECE010196B7010E943F
:1003B000D2048E010F5E1F4FCE010596B8010E9438
:1003C000D2048A8991E089278A8BC701B801AE01DE
:1003D000475E5F4F0E9475000E94FD03A096E6E015
:1003E0000C94C20EA0E2B0E0E8EFF1E00C94A60E8F
:1003F00069837A838B839C832D833E834F835887C5
:10040000F9E0EF2EF12CEC0EFD1ECE010196B701A6
:100410000E94D2048E010F5E1F4FCE010596B801D7
:100420000E94D204C701B801AE01475E5F4F0E942F
:1004300075000E94FD03A096E6E00C94C20EA0E2B7
:10044000B0E0E5E2F2E00C949A0E69837A838B8344
:100450009C832D833E834F835887CE010196BE0136
:10046000675F7F4F0E94D204CE010596BE016F5E8A
:100470007F4F0E94D2049985923088F0898982301A
:10048000C8F0943019F4823051F404C0843029F457
:10049000923081F480E690E0C6C0923049F420E0CA
:1004A0009A858A89981321E02A87CE010996BBC0D4
:1004B000823049F420E09A858A89981321E02A8BBA
:1004C000CE014196B0C02D843E844F8458886D88FB
:1004D0007E888F88988CEE24FF248701AA24BB2471
:1004E000650140E050E060E070E0E0E0F0E0C10174
:1004F00081709070892BE9F0E60CF71C081D191D1E
:100500009A01AB012A0D3B1D4C1D5D1D80E090E062
:10051000A0E0B0E0E614F7040805190520F481E036
:1005200090E0A0E0B0E0BA01A901480F591F6A1F8E
:100530007B1FAA0CBB1CCC1CDD1C97FE08C081E0F5
:1005400090E0A0E0B0E0A82AB92ACA2ADB2A3196B6
:10055000E032F10549F0660C771C881C991C569412
:10056000479437942794C3CFFA85EA892B893C892D
:100570008B859C85280F391F2E5F3F4F17C0CA01FE
:1005800081709070892B61F016950795F794E79428
:1005900080E090E0A0E0B0E8E82AF92A0A2B1B2BC3
:1005A00076956795579547952F5F3F4F77FDE7CF36
:1005B0000CC0440F551F661F771F17FD4160EE0CDE
:1005C000FF1C001F111F21503040403090E05907A0
:1005D00090E0690790E4790760F32B8F3C8FDB0193
:1005E000CA018F779070A070B07080349105A1051A
:1005F000B10561F447FD0AC0E114F10401051105DC
:1006000029F0405C5F4F6F4F7F4F40781A8EFE1786
:1006100011F081E08A8F4D8F5E8F6F8F78A383E01A
:10062000898FCE0149960E94FD03A096E2E10C94C9
:10063000B60EA8E1B0E0EFE1F3E00C94A60E6983FA
:100640007A838B839C832D833E834F83588789E0F5
:10065000E82EF12CEC0EFD1ECE010196B7010E9492
:10066000D2048E010F5E1F4FCE010596B8010E9485
:10067000D2048985823040F08989823028F0C70110
:10068000B8010E944A0501C08FEF6896E6E00C941D
:10069000C20EA8E1B0E0EFE4F3E00C94A60E69838B
:1006A0007A838B839C832D833E834F83588789E095
:1006B000E82EF12CEC0EFD1ECE010196B7010E9432
:1006C000D2048E010F5E1F4FCE010596B8010E9425
:1006D000D2048985823040F08989823028F0C701B0
:1006E000B8010E944A0501C08FEF6896E6E00C94BD
:1006F000C20EA8E1B0E0EFE7F3E00C94A60E698328
:100700007A838B839C832D833E834F83588789E034
:10071000E82EF12CEC0EFD1ECE010196B7010E94D1
:10072000D2048E010F5E1F4FCE010596B8010E94C4
:10073000D2048985823040F08989823028F0C7014F
:10074000B8010E944A0501C081E06896E6E00C9479
:10075000C20EACE0B0E0EFEAF3E00C94AA0E6983BD
:100760007A838B839C83CE010196BE016B5F7F4FA2
:100770000E94D2048D81823061F1823050F1843048
:1007800021F48E81882351F12EC02F81388537FDC9
:1007900020C06E812F3131051CF06623F9F023C093
:1007A0008EE190E0821B930B29853A854B855C8511
:1007B00004C056954795379527958A95D2F76623B5
:1007C000B1F050954095309521953F4F4F4F5F4F79
:1007D0000EC020E030E040E050E009C02FEF3FEFD6
:1007E0004FEF5FE704C020E030E040E050E8B9019F
:1007F000CA012C96E2E00C94C60EDF92EF92FF92B3
:100800000F931F93FC01E480F58006811781D1804E
:100810008081823048F480E090E0A0E1B0E0E82AF6
:10082000F92A0A2B1B2BA5C0843009F49FC0823003
:1008300021F4EE24FF24870105C0E114F104010531
:10084000110519F4E0E0F0E096C0628173819FEF3A
:10085000623879070CF05BC022E83FEF261B370BAC
:100860002A3131052CF020E030E040E050E02AC091
:10087000B801A701022E04C0769567955795479554
:100880000A94D2F781E090E0A0E0B0E004C0880FC5
:10089000991FAA1FBB1F2A95D2F70197A109B10979
:1008A0008E219F21A023B1230097A105B10521F03E
:1008B00081E090E0A0E0B0E09A01AB01282B392B59
:1008C0004A2B5B2BDA01C9018F779070A070B07052
:1008D00080349105A105B10539F427FF09C0205CDA
:1008E0003F4F4F4F5F4F04C0215C3F4F4F4F5F4F13
:1008F000E0E0F0E02030A0E03A07A0E04A07A0E402
:100900005A0710F0E1E0F0E079018A0127C0603871
:10091000710564F5FB01E158FF4FD801C7018F77DE
:100920009070A070B07080349105A105B10539F4C4
:10093000E7FE0DC080E490E0A0E0B0E004C08FE3EB
:1009400090E0A0E0B0E0E80EF91E0A1F1B1F17FFA1
:1009500005C016950795F794E794319687E01695AC
:100960000795F794E7948A95D1F705C0EE24FF2404
:100970008701EFEFF0E06E2F679566276795902F60
:100980009F77D794DD24D7948E2F8695492F462BB9
:10099000582F5D29B701CA011F910F91FF90EF9069
:1009A000DF900895FC01DB01408151812281622F9B
:1009B0006F7770E0221F2227221F9381892F880FD3
:1009C000822B282F30E0991F9927991F11969C930D
:1009D000119721153105A9F54115510561057105DD
:1009E00011F482E037C082E89FEF13969C938E93B8
:1009F00012979A01AB0167E0220F331F441F551F66
:100A00006A95D1F783E08C930DC0220F331F441FEA
:100A1000551F12968D919C911397019713969C9355
:100A20008E931297203080E0380780E0480780E4FA
:100A3000580758F314962D933D934D935C93179755
:100A400008952F3F310579F4411551056105710570
:100A500019F484E08C93089564FF03C081E08C93C3
:100A600012C01C9210C02F57304013963C932E9307
:100A7000129783E08C9387E0440F551F661F771F02
:100A80008A95D1F7706414964D935D936D937C9322
:100A9000179708951F93DC01FB019C91923008F495
:100AA00047C08081823008F443C0943051F41196DD
:100AB0001C91843099F58181682F70E0611B710968
:100AC0003FC0843021F0923031F48230B9F181811D
:100AD000882389F12DC011961C9111978230F1F075
:100AE00081811817D9F412962D913C911397828128
:100AF00093818217930794F028173907BCF0149656
:100B00008D919D910D90BC91A02D248135814681C0
:100B10005781281739074A075B0718F4112341F05A
:100B20000AC082179307A407B50740F4112319F0F0
:100B300061E070E005C06FEF7FEF02C060E070E041
:100B4000CB011F910895DF93CF9300D000D0CDB794
:100B5000DEB789836A838981282F30E03C832B8329
:100B60008B819C8182309105D9F02B813C8123308F
:100B7000310534F48B819C818130910561F01EC078
:100B80002B813C812330310581F08B819C81843025
:100B9000910581F013C0EAE3F0E08A8180830EC002
:100BA000E7E3F0E08A81808309C0E4E3F0E08A8132
:100BB000808304C0E1E3F0E08A8180830F900F908E
:100BC0000F900F90CF91DF910895DF93CF9300D0D6
:100BD00000D00F92CDB7DEB789836A834B838981BA
:100BE000282F30E03D832C838C819D8182309105BC
:100BF00009F448C02C813D812330310534F48C81C7
:100C00009D818130910571F0CBC02C813D812330D5
:100C1000310509F467C08C819D818430910509F408
:100C200091C0BEC08B818823A9F4AAE3B0E0EAE3B7
:100C3000F0E08081482F8A81282F30E081E090E029
:100C4000022E02C0880F991F0A94E2F78095842330
:100C50008C93A6C08B818F3F09F0A2C0AAE3B0E0BD
:100C6000EAE3F0E08081482F8A81282F30E081E09C
:100C700090E0022E02C0880F991F0A94E2F7842B9D
:100C80008C938EC08B818823A9F4A7E3B0E0E7E3BF
:100C9000F0E08081482F8A81282F30E081E090E0C9
:100CA000022E02C0880F991F0A94E2F780958423D0
:100CB0008C9376C08B818F3F09F072C0A7E3B0E0C0
:100CC000E7E3F0E08081482F8A81282F30E081E03F
:100CD00090E0022E02C0880F991F0A94E2F7842B3D
:100CE0008C935EC08B818823A9F4A4E3B0E0E4E395
:100CF000F0E08081482F8A81282F30E081E090E069
:100D0000022E02C0880F991F0A94E2F7809584236F
:100D10008C9346C08B818F3F09F042C0A4E3B0E0C2
:100D2000E4E3F0E08081482F8A81282F30E081E0E1
:100D300090E0022E02C0880F991F0A94E2F7842BDC
:100D40008C932EC08B818823A9F4A1E3B0E0E1E36A
:100D5000F0E08081482F8A81282F30E081E090E008
:100D6000022E02C0880F991F0A94E2F7809584230F
:100D70008C9316C08B818F3F99F4A1E3B0E0E1E33F
:100D8000F0E08081482F8A81282F30E081E090E0D8
:100D9000022E02C0880F991F0A94E2F7842B8C93CD
:100DA0000F900F900F900F900F90CF91DF910895BB
:100DB000DF93CF9300D000D00F92CDB7DEB78983F9
:100DC0006A834B838981282F30E03D832C838C817B
:100DD0009D818230910509F448C02C813D812330EA
:100DE000310534F48C819D818130910571F0CBC047
:100DF0002C813D812330310509F467C08C819D81B0
:100E00008430910509F491C0BEC08B818130A1F47A
:100E1000ABE3B0E0EBE3F0E08081482F8A81282F3C
:100E200030E081E090E0022E02C0880F991F0A9402
:100E3000E2F7842B8C93A7C08B81882309F0A3C091
:100E4000ABE3B0E0EBE3F0E08081482F8A81282F0C
:100E500030E081E090E0022E02C0880F991F0A94D2
:100E6000E2F7809584238C938EC08B818130A1F42E
:100E7000A8E3B0E0E8E3F0E08081482F8A81282FE2
:100E800030E081E090E0022E02C0880F991F0A94A2
:100E9000E2F7842B8C9377C08B81882309F073C091
:100EA000A8E3B0E0E8E3F0E08081482F8A81282FB2
:100EB00030E081E090E0022E02C0880F991F0A9472
:100EC000E2F7809584238C935EC08B818130A1F4FE
:100ED000A5E3B0E0E5E3F0E08081482F8A81282F88
:100EE00030E081E090E0022E02C0880F991F0A9442
:100EF000E2F7842B8C9347C08B81882309F043C091
:100F0000A5E3B0E0E5E3F0E08081482F8A81282F57
:100F100030E081E090E0022E02C0880F991F0A9411
:100F2000E2F7809584238C932EC08B818130A1F4CD
:100F3000A2E3B0E0E2E3F0E08081482F8A81282F2D
:100F400030E081E090E0022E02C0880F991F0A94E1
:100F5000E2F7842B8C9317C08B818823A1F4A2E342
:100F6000B0E0E2E3F0E08081482F8A81282F30E072
:100F700081E090E0022E02C0880F991F0A94E2F7E8
:100F8000809584238C930F900F900F900F900F906B
:100F9000CF91DF910895DF93CF9300D000D0CDB7EC
:100FA000DEB789836A838981282F30E03C832B83D5
:100FB0008B819C8182309105D9F02B813C8123303B
:100FC000310534F48B819C818130910561F01EC024
:100FD0002B813C812330310581F08B819C818430D1
:100FE000910581F013C0EBE3F0E08A8180830EC0AD
:100FF000E8E3F0E08A81808309C0E5E3F0E08A81DC
:10100000808304C0E2E3F0E08A8180830F900F9038
:101010000F900F90CF91DF910895DF93CF9300D081
:1010200000D0CDB7DEB789838981282F30E03C839B
:101030002B838B819C8182309105D9F02B813C815F
:101040002330310534F48B819C818130910561F02E
:101050001FC02B813C812330310581F08B819C8125
:101060008430910581F014C0EBE3F0E090819A8325
:1010700010C0E8E3F0E020812A830BC0E5E3F0E054
:1010800030813A8306C0E2E3F0E080818A8301C0C8
:101090001A828A810F900F900F900F90CF91DF915D
:1010A0000895DF93CF9300D000D00F92CDB7DEB775
:1010B00089836A838981282F30E03D832C834C818A
:1010C0005D814230510549F18C819D8183309105CC
:1010D00034F42C813D812130310561F057C04C81C1
:1010E0005D814330510561F18C819D818430910592
:1010F000D1F14CC0E9E3F0E08081282F30E08A8113
:10110000882F90E0A90102C0559547958A95E2F78E
:10111000CA01582F51705B833AC0E6E3F0E080814A
:10112000282F30E08A81882F90E0A90102C05595D0
:1011300047958A95E2F7CA01582F51705B8327C003
:10114000E3E3F0E08081282F30E08A81882F90E06F
:10115000A90102C0559547958A95E2F7CA01582F13
:1011600051705B8314C0E0E3F0E08081282F30E011
:101170008A81882F90E0A90102C0559547958A95EC
:10118000E2F7CA01582F51705B8301C01B828B812B
:101190000F900F900F900F900F90CF91DF910895C7
:1011A000DF93CF93CDB7DEB7E8970FB6F894DEBFE5
:1011B0000FBECDBF81E060E04FEF0E94E50581E00A
:1011C00061E04FEF0E94E50581E062E04FEF0E9491
:1011D000E50583E06FEF0E94A30580E090E0A8E4BE
:1011E000B2E48DAB9EABAFABB8AF6DA97EA98FA9B2
:1011F00098AD20E030E84BE355E40E941F02DC018B
:10120000CB0189AB9AABABABBCAB69A97AA98BA973
:101210009CA920E030E040E85FE30E947903882346
:101220002CF481E090E098AB8FA73FC069A97AA920
:101230008BA99CA920E03FEF4FE757E40E941903D8
:1012400018164CF56DA97EA98FA998AD20E030E065
:1012500040E251E40E941F02DC01CB01BC01CD0140
:101260000E944900DC01CB0198AB8FA70FC08CE234
:1012700091E09EA78DA78DA59EA50197F1F79EA74A
:101280008DA78FA598A9019798AB8FA78FA598A92F
:10129000009769F714C069A97AA98BA99CA90E9433
:1012A0004900DC01CB0198AB8FA78FA598A99CA71B
:1012B0008BA78BA59CA50197F1F79CA78BA78CE327
:1012C0000E94CA0A80E090E0A0E0B0E48FA398A753
:1012D000A9A7BAA76FA178A589A59AA520E030E8AB
:1012E0004BE355E40E941F02DC01CB018BA39CA3BE
:1012F000ADA3BEA36BA17CA18DA19EA120E030E097
:1013000040E85FE30E94790388232CF481E090E0B9
:101310009AA389A33FC06BA17CA18DA19EA120E0CF
:101320003FEF4FE757E40E94190318164CF56FA1E1
:1013300078A589A59AA520E030E040E251E40E941A
:101340001F02DC01CB01BC01CD010E944900DC0180
:10135000CB019AA389A30FC08CE291E098A38F8F51
:101360008F8D98A10197F1F798A38F8F89A19AA1EA
:1013700001979AA389A389A19AA1009769F714C03C
:101380006BA17CA18DA19EA10E944900DC01CB0133
:101390009AA389A389A19AA19E8F8D8F8D8D9E8DF1
:1013A0000197F1F79E8F8D8F8CE00E94CA0A80E032
:1013B00090E0A0E0B0E4898F9A8FAB8FBC8F698DED
:1013C0007A8D8B8D9C8D20E030E84BE355E40E94B4
:1013D0001F02DC01CB018D8B9E8BAF8BB88F6D898B
:1013E0007E898F89988D20E030E040E85FE30E949D
:1013F000790388232CF481E090E09C8B8B8B3FC099
:101400006D897E898F89988D20E03FEF4FE757E403
:101410000E94190318164CF5698D7A8D8B8D9C8D61
:1014200020E030E040E251E40E941F02DC01CB01E9
:10143000BC01CD010E944900DC01CB019C8B8B8B50
:101440000FC08CE291E09A8B898B89899A890197E8
:10145000F1F79A8B898B8B899C8901979C8B8B8B5D
:101460008B899C89009769F714C06D897E898F8963
:10147000988D0E944900DC01CB019C8B8B8B8B8962
:101480009C89988B8F878F8598890197F1F7988B26
:101490008F8781E00E94CA0A80E090E0A0EAB0E471
:1014A0008B879C87AD87BE876B857C858D859E8568
:1014B00020E030E84BE355E40E941F02DC01CB0141
:1014C0008F839887A987BA876F81788589859A8560
:1014D00020E030E040E85FE30E94790388232CF4A9
:1014E00081E090E09E838D833FC06F817885898500
:1014F0009A8520E03FEF4FE757E40E941903181642
:101500004CF56B857C858D859E8520E030E040E242
:1015100051E40E941F02DC01CB01BC01CD010E94FD
:101520004900DC01CB019E838D830FC08CE291E0EA
:101530009C838B838B819C810197F1F79C838B83A8
:101540008D819E8101979E838D838D819E810097E1
:1015500069F714C06F81788589859A850E94490052
:10156000DC01CB019E838D838D819E819A8389834B
:1015700089819A810197F1F79A83898386E00E9495
:10158000CA0AE8960FB6F894DEBF0FBECDBFCF9162
:10159000DF910895DF93CF930F92CDB7DEB78983A4
:1015A00081E060E040E00E94D80681E061E040E038
:1015B0000E94D80683E069810E94CB070E94E40A5A
:1015C0000F90CF91DF910895DF93CF93CDB7DEB722
:1015D0002E970FB6F894DEBF0FBECDBF81E062E05C
:1015E00041E00E94D80680E090E0A0E0B0E48B8764
:1015F0009C87AD87BE876B857C858D859E8520E029
:1016000030E84BE355E40E941F02DC01CB018F83DD
:101610009887A987BA876F81788589859A8520E020
:1016200030E040E85FE30E94790388232CF481E0F6
:1016300090E09E838D833FC06F81788589859A85F0
:1016400020E03FEF4FE757E40E94190318164CF5CE
:101650006B857C858D859E8520E030E040E251E4FD
:101660000E941F02DC01CB01BC01CD010E94490098
:10167000DC01CB019E838D830FC08CE291E09C83C3
:101680008B838B819C810197F1F79C838B838D8168
:101690009E8101979E838D838D819E81009769F73E
:1016A00014C06F81788589859A850E944900DC0184
:1016B000CB019E838D838D819E819A8389838981CD
:1016C0009A810197F1F79A83898381E062E040E093
:1016D0000E94D8062E960FB6F894DEBF0FBECDBF7F
:1016E000CF91DF910895DF93CF930F92CDB7DEB7FF
:1016F000898381E060E040E00E94D80681E061E0FB
:1017000041E00E94D80683E069810E94CB070E94D5
:10171000E40A0F90CF91DF910895DF93CF9300D02B
:1017200000D0CDB7DEB79B838A836C8319820EC04D
:101730008981282F30E08A819B81FC01E20FF31F11
:1017400080810E94730B89818F5F898399818C814D
:10175000981770F30F900F900F900F90CF91DF912B
:101760000895DF93CF93CDB7DEB783E060E00E94AA
:10177000CB0781E060E040E00E94D80681E061E0B4
:1017800040E00E94D80681E062E040E00E94D80676
:1017900083E062E040E00E94D80683E063E041E03D
:1017A0000E94D80683E064E041E00E94D8060E94CF
:1017B000E40ACF91DF910895DF93CF93CDB7DEB7E1
:1017C00083E060E00E94CB0781E060E040E00E949F
:1017D000D80681E061E040E00E94D80681E062E046
:1017E00040E00E94D80683E062E041E00E94D80613
:1017F00083E063E041E00E94D80683E064E041E0DA
:101800000E94D8060E94E40ACF91DF910895DF93E9
:10181000CF9300D0CDB7DEB71A820FC08A81882F50
:1018200090E0FC01E859FF4F908184E0692F4FEF71
:101830000E94E5058A818F5F8A838A81843070F3F4
:1018400019821BC08981882F90E0FC01E459FF4F69
:10185000908184E0692F40E00E94E5058981882F0E
:1018600090E0FC01E459FF4F908184E0692F41E052
:101870000E94D80689818F5F89838981843010F323
:101880000F900F90CF91DF910895DF93CF93CDB755
:10189000DEB761970FB6F894DEBF0FBECDBF1F86CF
:1018A000188ABDC08889882F90E0FC01E859FF4F55
:1018B000908184E0692F40E00E94D806198A9CC07C
:1018C0008989882F90E0FC01E459FF4F908184E0E2
:1018D000692F0E945108882309F08BC08989882FBD
:1018E00090E0880F991F880F991F982F8889890F7A
:1018F0008F5F8F878989882F90E0FC01E459FF4F23
:10190000908184E0692F0E945108813099F380E032
:1019100090E4ACE1B5E48B879C87AD87BE876B858F
:101920007C858D859E8520E030E04AE753E40E9467
:101930001F02DC01CB018F839887A987BA876F814B
:10194000788589859A8520E030E040E85FE30E9451
:10195000790388232CF481E090E09E838D833FC03F
:101960006F81788589859A8520E03FEF4FE757E4BE
:101970000E94190318164CF56B857C858D859E8514
:1019800020E030E040E251E40E941F02DC01CB0184
:10199000BC01CD010E944900DC01CB019E838D83F7
:1019A0000FC089E190E09C838B838B819C810197A0
:1019B000F1F79C838B838D819E8101979E838D831C
:1019C0008D819E81009769F714C06F817885898524
:1019D0009A850E944900DC01CB019E838D838D8115
:1019E0009E819A83898389819A810197F1F79A83ED
:1019F000898389898F5F898B8989843008F460CFD6
:101A00008889882F90E0FC01E859FF4F908184E09D
:101A1000692F41E00E94D80688898F5F888B88896A
:101A2000843008F43FCF8F8561960FB6F894DEBFFF
:101A30000FBECDBFCF91DF910895DF93CF93CDB788
:101A4000DEB70E94590E0E94F10DFDCFDF93CF93B8
:101A5000CDB7DEB76F970FB6F894DEBF0FBECDBF20
:101A6000CE0104969F8B8E8BEEE7F0E0F98FE88F26
:101A7000F7E0FA8FE88DF98D0080888D998D0196B9
:101A8000998F888FEE89FF8900828E899F890196C0
:101A90009F8B8E8B9A8D91509A8FEA8DEE2351F702
:101AA000CE010B969C8F8B8FE3E7F0E0FE8FED8FDE
:101AB000FBE0FF8FED8DFE8D00808D8D9E8D01965C
:101AC0009E8F8D8FEB8DFC8D00828B8D9C8D019672
:101AD0009C8F8B8F9F8D91509F8FEF8DEE2351F7B1
:101AE0001B8283E08A8319821DC00E94CF0D0E9451
:101AF000A30D8B838B81882341F00E94D008CE01F7
:101B0000049667E00E948D0BFFCF8B81882339F408
:101B10000E94D008CE010B966AE00E948D0B89814D
:101B20008F5F898399818A819817F8F20E94D00883
:101B300081E064E041E00E94D80681E065E041E098
:101B40000E94D806FFCFDF93CF9300D00F92CDB77E
:101B5000DEB783E08A83198215C08981882F90E0DF
:101B6000FC01EE56FF4F20818981882F90E0FC0117
:101B7000E059FF4F8081281711F01B8209C089812D
:101B80008F5F898399818A81981738F381E08B83ED
:101B90008B810F900F900F90CF91DF910895DF937D
:101BA000CF9300D00F92CDB7DEB783E08B8319823D
:101BB0000EC00E94F10D8A838981882F90E0FC017C
:101BC000EE56FF4F8A81808389818F5F8983998157
:101BD0008B81981770F30F900F900F90CF91DF913A
:101BE0000895DF93CF9300D0CDB7DEB70E94450CA8
:101BF00089838981813031F481E30E94730B81E311
:101C00008A8351C08981823031F482E30E94730B50
:101C100082E38A8348C08981833031F483E30E9460
:101C2000730B83E38A833FC08981853031F484E379
:101C30000E94730B84E38A8336C08981863031F435
:101C400085E30E94730B85E38A832DC089818730E9
:101C500031F486E30E94730B86E38A8324C0898172
:101C6000893031F487E30E94730B87E38A831BC0BA
:101C700089818A3031F488E30E94730B88E38A8378
:101C800012C089818B3031F489E30E94730B89E3A0
:101C90008A8309C089818E3009F0A8CF80E30E9431
:101CA000730B80E38A838A810F900F90CF91DF912D
:101CB0000895DF93CF93CDB7DEB761970FB6F89451
:101CC000DEBF0FBECDBF81E064E04FEF0E94E505AF
:101CD000CE0101969E878D87E5E8F0E0F88BEF87CF
:101CE000FCE0F98BEF85F88900808F859889019653
:101CF000988B8F87ED85FE8500828D859E85019668
:101D00009E878D8799899150998BE989EE2351F7A8
:101D10000E94D008CE0101966BE00E948D0B0E94BC
:101D2000070C61960FB6F894DEBF0FBECDBFCF9102
:101D3000DF9108952F923F924F925F926F927F9220
:101D40008F929F92AF92BF92CF92DF92EF92FF92CB
:101D50000F931F93CF93DF93CDB7DEB7CA1BDB0B77
:101D60000FB6F894DEBF0FBECDBF09942A8839881C
:101D700048885F846E847D848C849B84AA84B98423
:101D8000C884DF80EE80FD800C811B81AA81B9812F
:101D9000CE0FD11D0FB6F894DEBF0FBECDBFED0143
:061DA0000895F894FFCF46
:101DA6000000000000000000040506070302010011
:101DB60032323254525920414741494E3A20574512
:101DC6004C434F4D45454E54455220504153533A8E
:021DD6002000EB
:00000001FF
