:100000000C9439000C9456000C9456000C94560035
:100010000C9456000C9456000C9456000C94560008
:100020000C9456000C9456000C9456000C947A03D1
:100030000C9456000C9456000C9456000C945600E8
:100040000C9456000C9456000C9456000C945600D8
:100050000C945600E002F602E202D402E402E60248
:10006000E802D402EA02EC02EE02D402F002F2024A
:10007000F40211241FBECFE5D8E0DEBFCDBF10E0F3
:10008000A0E6B0E0EEEAF7E002C005900D92A836D7
:10009000B107D9F720E0A8E6B0E001C01D92A4376F
:1000A000B207E1F70E94B2030C94D5030C94000050
:1000B00083B7816083BF83B7846083BF12BE89B773
:1000C000816089BF8FB780688FBF0895823059F0F3
:1000D00018F4813031F00895833039F0843039F0EC
:1000E00008956ABB089567BB089564BB089561BB1A
:1000F0000895823031F118F4813039F00895833059
:10010000E1F1843009F454C0089541110CC02AB3C0
:1001100081E090E0062E01C0880F0A94EAF78095EE
:1001200082238ABB08954F3F09F05CC02AB381E067
:1001300090E0062E01C0880F0A94EAF7282B2ABB0C
:10014000089541110CC027B381E090E0062E01C054
:10015000880F0A94EAF78095822387BB08954F3F62
:1001600009F040C027B381E090E0062E01C0880F5F
:100170000A94EAF7282B27BB089541110CC024B339
:1001800081E090E0062E01C0880F0A94EAF780957E
:10019000822384BB08954F3F29F524B381E090E08A
:1001A000062E01C0880F0A94EAF7282B24BB089575
:1001B00041110CC021B381E090E0062E01C0880FF0
:1001C0000A94EAF78095822381BB08954F3F51F44A
:1001D00021B381E090E0062E01C0880F0A94EAF76F
:1001E000282B21BB0895823029F118F4813039F091
:1001F00008958330D1F1843009F452C0089541301C
:1002000059F42BB381E090E0062E01C0880F0A94C8
:10021000EAF7282B2BBB089541115CC02BB381E07A
:1002200090E0062E01C0880F0A94EAF78095822399
:100230008BBB0895413059F428B381E090E0062E3D
:1002400001C0880F0A94EAF7282B28BB08954111B2
:1002500041C028B381E090E0062E01C0880F0A94C7
:10026000EAF78095822388BB0895413059F425B37D
:1002700081E090E0062E01C0880F0A94EAF7282B4F
:1002800025BB0895411126C025B381E090E0062EDC
:1002900001C0880F0A94EAF78095822385BB0895F0
:1002A000413059F422B381E090E0062E01C0880F5E
:1002B0000A94EAF7282B22BB089541110BC022B300
:1002C00081E090E0062E01C0880F0A94EAF780953D
:1002D000822382BB0895823059F018F4813031F0C6
:1002E0000895833039F0843039F008956BBB089558
:1002F00068BB089565BB089562BB0895823059F0CC
:1003000020F4813061F48BB30895833031F0843070
:1003100031F482B3089588B3089585B3089580E0D9
:100320000895823059F020F4813099F489B309C0DE
:10033000833031F0843069F480B303C086B301C0E8
:1003400083B390E002C0959587956A95E2F7817036
:10035000089580E0089541E062E081E00E94F300AA
:100360008FE697E10197F1F700C0000040E062E0FE
:1003700081E00C94F300CF93C82F40E060E081E06F
:100380000E94F30040E061E081E00E94F3006C2FE6
:1003900083E00E946B01CF910C94AB014FEF60E0C2
:1003A00081E00E9479004FEF61E081E00E947900D6
:1003B0004FEF62E081E00E9479006FEF83E00E94DE
:1003C00066002FEB84ED91E0215080409040E1F7F2
:1003D00000C000008CE30E94BB018FE697E101970B
:1003E000F1F700C000008CE00E94BB018FE697E1AE
:1003F0000197F1F700C0000081E00E94BB0187E98E
:100400009AE30197F1F700C0000086E00C94BB016D
:10041000CF93C82F40E060E081E00E94F30041E00C
:1004200061E081E00E94F3006C2F83E00E946B0189
:10043000CF910C94AB01EF92FF921F93CF93DF9378
:100440001F92CDB7DEB7182F7C018E2D811B86172A
:1004500040F4F70181917F0169830E94080269815C
:10046000F4CF0F90DF91CF911F91FF90EF900895FF
:100470000F931F93CF93DF93C4E6D0E069914FEFC2
:1004800084E00E94790080E0C836D807B9F7C0E65A
:10049000D0E08E0140E0699184E00E94790041E063
:1004A000F801608184E00E94F300F0E0C436DF07C9
:1004B00081F7DF91CF911F910F910895AF92BF9275
:1004C000CF92DF92EF92FF920F931F93CF93DF9320
:1004D000C4E6D0E0DD24D394B12C7E0140E06881F5
:1004E00084E00E94F30000E610E080E1A82EAD0C4D
:1004F000CD2CF80161918F0184E00E94910181115E
:100500000AC0FFEF21EE84E0F15020408040E1F787
:1005100000C00000BC2C84E08C0D8A1511F0C82EA0
:10052000E8CF219641E0F701608184E00E94F3006A
:10053000D394F5E0DF12D1CF8B2DDF91CF911F91B6
:100540000F91FF90EF90DF90CF90BF90AF90089504
:1005500020917100309172002230310519F0253060
:10056000310561F4EEE6F0E0E21BF30B80832F5FD0
:100570003F4F309372002093710005C0EFE6F0E02A
:10058000E21BF30B80830E94CE0168E088E690E0D6
:100590000E941B02809171009091720001969093CD
:1005A00072008093710008950E945E0290E0FC0149
:1005B0003197EF30F105C0F7E65DFF4F0C94CF03A4
:1005C00081E3089583E3089584E3089585E308951E
:1005D00086E3089587E3089588E3089589E30895FD
:1005E0008AE2089580E3089583E2089582E30895FE
:1005F00010927000109272001092710080E380934C
:1006000073008DE280936800809369009AE3909371
:100610006A0080936B0080936C0090936D008093D0
:100620006E0080936F000E94CE0168E088E690E043
:100630000E941B020E9438020C945800E8E6F0E089
:1006400080E390819D3209F48083319690E0E03719
:10065000F907B9F781E38093730010927000089551
:1006600080916F008033E1F580916E00803399F5C1
:1006700080916C00803351F580916B008033F1F4F0
:1006800080916900803371F480916800803359F162
:1006900081508093680089E38093690095E390938B
:1006A0006B0007C081508093690095E390936B00C5
:1006B00089E380936C0090936E0013C08150809307
:1006C0006B0089E380936C0095E3F5CF81508093B4
:1006D0006C0085E301C0815080936E0089E301C006
:1006E000815080936F000E94CE0168E088E690E020
:1006F0000C941B021F920F920FB60F9211242F938E
:100700003F934F935F936F937F938F939F93AF9399
:10071000BF93EF93FF93809170008D3141F48091EE
:100720007300813321F40E94300310927000809195
:100730007300813329F4809170008F5F8093700083
:1007400012BEFF91EF91BF91AF919F918F917F91D9
:100750006F915F914F913F912F910F900FBE0F902E
:100760001F9018950E94F8020E94D4029091730085
:10077000913319F48A32C1F7F5CF8A3299F3833273
:1007800019F40E941E03F0CF209171003091720085
:100790002830310548F790E00E94A802E5CFEE0F1F
:0E07A000FF1F0590F491E02D0994F894FFCF0F
:0807AE00040506070302010027
:00000001FF
